:020000040000FA
:1000000038060020D5000000DD000000DF00000001
:1000100000000000000000000000000000000000E0
:10002000000000000000000000000000E1000000EF
:100030000000000000000000E30000008D5D0000F3
:10004000E7000000E7000000E7000000E700000014
:10005000E700000000000000E7000000455E00002F
:10006000E700000000000000E700000000000000C2
:10007000E700000000000000E7000000D55D000080
:10008000E700000000000000E7000000E7000000BB
:1000900000000000E7000000E7000000E7000000AB
:1000A000E7000000E7000000E7000000000000009B
:1000B000E7000000E7000000E7000000E7000000A4
:1000C0000348854604F0FCFF00480047B574000073
:1000D000380600200448804704480047FEE7FEE752
:1000E000FEE7FEE7FEE7FEE7955D0000C1000000C9
:1000F00010B5012004F013FD0446332C01D101207A
:1001000010BD0020FCE710B5002004F008FD0446F7
:100110002402012004F003FD04432402022004F021
:10012000FEFC0443204610BD10B5044622460421BF
:10013000C22004F046FD10BD10B504462246102131
:10014000C22004F03EFD10BD10B50446A007020E0B
:10015000C021C22004F010FD10BD00000146C217EE
:10016000920F521892109200821AFE4B1A7070472A
:10017000FC480078704710B50446012161400A46EA
:10018000F8490978090209231B02C91888B2072116
:1001900004F017FDF3490978090249225201891830
:1001A00088B222460A2104F00CFD012161400A4672
:1001B000EC490978090249235B01C91888B220215A
:1001C00004F0FFFC10BD10B50446002C13D0E54927
:1001D00009780902E44A891888B2072104F0DFFC93
:1001E000E0490978090249225201891888B204219C
:1001F00004F0D5FC12E0DB490978090249225201DA
:10020000891888B2042104F0D3FCD6490978090280
:10021000D54A891888B2072104F0CAFC10BD70B510
:1002200005460E460024002E01D0802000E000206C
:100230000443002D01D1002000E040200443C949BF
:1002400009780902C84A891888B22246C02104F0F8
:1002500093FC70BD10B50446C249097809024922D1
:100260005201891888B22246402104F0AAFC10BD30
:1002700070B504460D466407640F2D072D0F22014B
:10028000B84909780902B84B9B1DC91888B2F021FA
:1002900004F072FC2A01B34909780902B24B083311
:1002A000C91888B2F02104F067FC70BD70B504462F
:1002B0000D4616466407640F2D072D0F3607360FBF
:1002C000220122431146A74A12781202A64B5B1D57
:1002D000D21890B204F02BFCA24909780902A24A74
:1002E000921D891888B222460F2104F045FC2A018C
:1002F0002A4311469B4A127812029B4BDB1DD218EF
:1003000090B204F014FC974909780902964A083221
:10031000891888B22A460F2104F02EFC320132439C
:100320001146904A127812028F4B0933D21890B2BC
:1003300004F0FDFB8B49097809028B4A0A328918BF
:1003400088B232460F2104F017FC70BD10B5044688
:10035000844909780902844A121D891888B2224604
:10036000102104F02EFC10BD70B504467F48844275
:1003700001DD092000E0042005467C48844201DDBF
:10038000092000E007200646764909780902764AE6
:10039000103A891888B2072104F00AFC71490978DB
:1003A0000902714A1E3A891888B2012104F0F7FB4C
:1003B0006C49097809026C4A1B3A891888B20821ED
:1003C00004F0EDFBF021082004F0E9FBF0210A2005
:1003D00004F0E5FB634909780902634A921D891814
:1003E00088B24022702104F0C7FB5E4909780902F7
:1003F0005D4A0832891888B22022F02104F0BCFB43
:10040000584909780902584A521D891888B20422AD
:10041000072104F0B1FB534909780902524AD21D61
:10042000891888B22A460F2104F0A6FB4D490978A5
:1004300009024D4A121D891888B20122114604F0A2
:100440009BFB484909780902474A0932891888B252
:1004500032460F2104F090FB424909780902424AD2
:10046000521D891888B24022702104F085FB2907AB
:100470000A0E3C49097809023B4BDB1DC91888B2BA
:10048000F02104F079FB374909780902364A121D38
:10049000891888B20222114604F06EFB31070A0E59
:1004A000304909780902304B0933C91888B2F02164
:1004B00004F062FB2B49097809022B4A921D891826
:1004C00088B20422072104F057FB26490978090263
:1004D000254A0832891888B22A460F2104F04CFBBD
:1004E000204909780902204A121D891888B204227D
:1004F000114604F041FB1B49097809021A4A0A32E5
:10050000891888B232460F2104F036FB1549097864
:10051000090209221202891888B2202104F007FB7F
:100520006421204604F00AFC642842DD0D49097864
:1005300009020D4A193A891888B2042104F02FFBE8
:1005400008490978090249225201891888B24021D4
:1005500004F025FB034909780902034AD21D8918D2
:1005600088B205E0B40000201F090000204E000002
:10057000DD2104F0DCFAFE4909780902FD4A8918F8
:1005800088B20D2104F0D3FAF94909780902F94A31
:10059000521C891888B2882104F0C9FAF4490978F4
:1005A0000902F44A921C891888B2082104F0BFFAA3
:1005B0003AE0EF4909780902EE4A213A891888B2EF
:1005C000042104F0F5FAEA490978090249225201A6
:1005D000891888B2402104F0EBFAE549097809024C
:1005E000E44A521E891888B2112104F0A0FAE049A9
:1005F00009780902DF4A891888B2012104F097FAC4
:10060000DB4909780902DB4A521C891888B211219A
:1006100004F08DFAD64909780902D64A921C891845
:1006200088B2012104F083FAD14909780902D14A3C
:10063000223A891888B20222032104F09DFA70BD83
:1006400010B5044600BFCA49097809029122120177
:10065000891888B2012104F06AFA0A2007F078F8B4
:1006600010BD10B50446C24909780902C24A89186A
:1006700088B22246022104F0A4FA10BD10B5044647
:10068000BB4909780902BC4A891888B2224604216C
:1006900004F097FA10BD10B50446012161400A46E6
:1006A000B34909780902B44B1B1FC91888B201214C
:1006B00004F087FA10BD10B50446092C00DD0024B3
:1006C0002146232004F033FA10BD10B50446A107DB
:1006D0000A0EA74909780902A123DB00C91888B2CC
:1006E000C02104F049FA10BD10B50446002C01DD0C
:1006F000012100E000210A469D4909780902A12351
:10070000DB00C91888B2042104F05BFA9849097823
:100710000902A122D200891888B22246032104F0DE
:100720002BFA10BD10B504462007020E30214820D8
:1007300004F022FA10BD10B5502004F0F0F90221A7
:100740000840400810BD10B50446002C06D0012C0E
:1007500013D0022C24D0032C46D135E003210820ED
:1007600004F026FA824909780902532212018918F5
:1007700088B2012104F01CFA37E002210A2004F0BB
:100780000EFA0321082004F00AFA794909780902CF
:1007900053221201891888B2012104F000FA24E0E2
:1007A00001210A2004F0FBF901220321082004F0B2
:1007B000E3F96F490978090253221201891888B2B6
:1007C000012104F0F5F910E001220321082004F0D2
:1007D000D3F967490978090253221201891888B2AE
:1007E000012104F0DCF900E000BF00BF10BD10B52E
:1007F0000446082C26D006DC002C48D0022C47D01A
:10080000032C43D112E00A2C04D00C2C26D00E2C41
:100810003CD12FE0564909780902574A2A328918F3
:1008200088B202227F2104F0A7F93DE050490978FF
:100830000902514A2A32891888B240227F2104F0E5
:100840009BF931E04A49097809024B4A2A32891852
:1008500088B210227F2104F08FF925E044490978FD
:100860000902454A2A32891888B208227F2104F0F9
:1008700083F919E03E49097809023F4A2A3289186A
:1008800088B201227F2104F077F90DE000BF00BF9C
:10089000374909780902384A2A32891888B204226D
:1008A0007F2104F069F900BF00BF10BD10B50446F8
:1008B0002F4909780902304A2E32891888B200225D
:1008C000302104F059F910BD10B50446012C01DCAB
:1008D000012408E0032C01DC032404E0052C01DCE6
:1008E000072400E00F24224909780902224A2B320A
:1008F000891888B222460F2104F03EF910BD10B5C8
:100900000446002C01D0022100E000210A461849CB
:1009100009780902184B2E33C91888B2032104F054
:100920002BF910BD70B5044600261149097809025B
:10093000114AD21D891888B2402104F039F90E21DC
:100940000E4804F039FAE6797001602108400B493D
:100950004870084640781021084308494870084606
:10096000407861798907890F08430449487007E096
:10097000B40000202709000007050000140400202F
:10098000607A002802D1402088702BE0607A01282C
:1009900002D0607A032803D18020FE49887021E0CC
:1009A000607A052809D1C020FA4988700846C078C5
:1009B00070218843F749C87014E0607A062805D191
:1009C000C020F44988701020C8700BE0F14880788E
:1009D000C0218843EF4988700846C0787021884359
:1009E000EC49C870A079012806D1EA488078102126
:1009F0000843E849887008E0A079022805D1E54855
:100A0000807820210843E3498870E24880780821F3
:100A10000843E04988706078402802DB00200871B4
:100A200002E06078DB4908712079DA494871912049
:100A30000870012508E0D7480078D649495D40187C
:100A4000D4490870681CC5B20E2DF4DBD14800787B
:100A5000FF210131081ACF490870CF4909780902EE
:100A6000CE4A891888B2822104F061F8CA4909780F
:100A70000902CA4A521E891888B2022104F057F8A6
:100A8000C54909780902C54A521C891888B20D2146
:100A900004F04DF800250CE0BE4A515DBE4A1278C4
:100AA0001202BE4BDB1CD21890B204F040F8681C56
:100AB000C5B20E2DF0DBB84909780902B74A121DFC
:100AC000891888B2402104F06AF870BD70B50546F7
:100AD000B14909780902B14A121D891888B220214A
:100AE00004F066F80E21AB4804F066F98420A949A9
:100AF0000870012048700A2088708F20C870287CF8
:100B0000087100204871687CC871042408E0A1487D
:100B1000C078A049095D40189E49C870601CC4B2E5
:100B20000E2CF4DB9B48C078FF210131081A99494B
:100B3000C8700A461178984A12781202974BD21858
:100B400090B203F0F4FF934A5178934A127812025C
:100B5000924B5B1ED21890B203F0E9FF8D4A917858
:100B60008D4A127812028D4B5B1CD21890B203F0A2
:100B7000DEFF03240CE0874A115D874A12781202D7
:100B8000864BDB1CD21890B203F0D1FF601CC4B2BC
:100B90000E2CF0DB804909780902804A121D891861
:100BA00088B2202103F0FBFF70BD70B505467A497D
:100BB00009780902794A521D891888B2012103F087
:100BC000F7FF2021734804F0F7F88120714908707D
:100BD000012048701B2088709D20C8700320087178
:100BE0000C20487100208871A87A4007000EC87157
:100BF000E87A0872042408E06648C0786549095D0F
:100C000040186449C870601CC4B21F2CF4DB6148F2
:100C1000C078FF210131081A5E49C8700A46117870
:100C20005D4A127812025D4BD21890B203F07FFF3A
:100C3000584A5178584A12781202584B5B1ED21803
:100C400090B203F074FF534A9178534A127812021B
:100C5000524B5B1CD21890B203F069FF03240CE0E6
:100C60004C4A115D4C4A127812024C4BDB1CD218D4
:100C700090B203F05CFF601CC4B21F2CF0DB46494D
:100C800009780902454A521D891888B2012103F0EA
:100C900086FF70BD10B504463F49097809023F4AF6
:100CA000121D891888B22246802103F08AFF10BDE8
:100CB00010B539490978090257221201891888B2FA
:100CC000012103F06CFF344909780902334A521FAD
:100CD000891888B2012103F062FF2F4802780120B1
:100CE00090402D4A137810229A401043C1B206203A
:100CF00003F055FF284909780902284A2732891844
:100D000088B2802103F04BFF10BD70B50446224825
:100D1000037801209840204B1D781023AB401843E6
:100D2000C1B20120604002460B2003F04AFF70BDB3
:100D300010B504462046FFF75AFD10BD10B5044615
:100D4000154909780902154A121F891888B2062127
:100D500003F025FF607BFFF7F6FCA07BFFF747FD64
:100D6000E07BFFF7A3FD207CFFF7AEFD2046FFF7F9
:100D7000ADFE094909780902084A121F891888B28C
:100D8000042103F015FF642006F0F6FC02490978FF
:100D9000090205E014040020B40000200A05000048
:100DA000FB4A121F891888B2022103F001FF10BD0F
:100DB00010B5044604220C21072003F0DDFE6088F4
:100DC000FFF7D2FA0120FFF7D6F90A2006F0C0FC9F
:100DD0006088FFF735FC0120FFF797FFFFF768FFFA
:100DE0002178002901D0012100E000210846FFF709
:100DF00052FCE079012806D1207A002803D0002097
:100E0000FFF763FC02E0E079FFF75FFC207AFFF771
:100E10006BFC607BFFF797FCA07BFFF7E8FCE07BB7
:100E2000FFF744FD207CFFF74FFD0020FFF76DFF2B
:100E30002046FFF777FD2046FFF748FEA07A0028FE
:100E400002D02046FFF7B1FE10BD0146022901D1B4
:100E5000012004E0012901D1022000E000207047B8
:100E600070B505460C462846FFF7EFFF05462046BD
:100E7000FFF7EBFF0446A0002843C6B2C549097836
:100E800009010846803032460F2103F075FEC14942
:100E9000097809010846803003F041FE0007000F81
:100EA00001D0012070BD0020FCE710B50020FFF745
:100EB00062F910BD10B5B74909780902B44A083A79
:100EC000891888B203F02BFEC007C00F10BD10B503
:100ED000B04909780902AE4A1332891888B203F082
:100EE0001EFE10210840000910BD70B503247020BB
:100EF00003F015FE05072D0F092D01D0002070BD50
:100F0000A4480678712003F00AFE054671002046C9
:100F10008840C4B228462040A04201D00120EEE71C
:100F20000020ECE710B50446002C11D0002006F09C
:100F30007DFDFF21132003F0FAFD96480278012081
:100F400090400F2282431146122003F0F0FD06E08C
:100F50000F21122003F0EBFD012006F067FD10BD0C
:100F600010B50446FFF7C1FF002801D0002010BDD6
:100F70000120FFF7D7FF4021742006F032FD2070DA
:100F80000020FFF7CFFF20780C21084201D000207D
:100F9000EDE70120EBE770B504460D460120FFF7B1
:100FA000C1FF4121742006F01CFD207042217420F5
:100FB00006F017FD28700020FFF7B4FF012070BD78
:100FC00030B50246002300210EE0555C002407E006
:100FD000E807C00F01D0581CC3B26D10601CC4B22A
:100FE000082CF5DB481CC1B20529EEDB142B01D01F
:100FF000002030BD0120FCE710B50446FFF775FF67
:10100000002801D0002010BD0120FFF78BFF2346F0
:1010100005220021742006F011FC0020FFF782FF5A
:101020002046FFF7CDFF002800D1ECE70120EAE7DA
:1010300070B5054600240CE0295D564A127812026C
:10104000534B7833D218121990B203F070FD601C24
:10105000C4B2052CF0DB4F49097809024C4AAD3285
:10106000891888B20322114603F086FD49490978A0
:101070000902474A7732891888B24A22114603F09A
:101080007BFD70BD10B500240DE0434A115D414A5F
:10109000127812023E4B7D33D218121990B203F02F
:1010A00046FD601CC4B2082CEFDB0120FFF73AFFBD
:1010B000002409E03848025D20461830C1B274208F
:1010C00006F0F7FC601CC4B2082CF3DB0020FFF72D
:1010D00029FF10BD70B505460120FFF723FF00244E
:1010E00008E02A5D20461030C1B2742006F0E1FC11
:1010F000601CC4B2052CF4DB0020FFF713FF70BDA9
:1011000070B5054600240BE0295D224A12781202D0
:101110001F4B8C33D21890B203F009FD601C84B2CF
:10112000FF2019308442EFDB70BD10B50446002C5F
:101130000BD0184909780902154A7732891888B204
:101140000B22114603F018FD13E012490978090239
:101150000F4A7732891888B2042103F0E8FC0D4960
:10116000097809020A4A7732891888B2002103F007
:10117000DEFC10BD10B5074909780902044AAD32FA
:10118000891888B203F0CBFC04210840800810BD08
:101190000A050000B40000203A9A000010B5044689
:1011A000FFF7E8FF00280BD0FE4909780902FE4A44
:1011B000891888B22246012103F003FD012010BDE9
:1011C0000020FCE710B50446F64909780902F64A02
:1011D0003632891888B2042103F0E1FCFFF7CAFF18
:1011E000002804D02046FFF78BFF022010BD01200D
:1011F000FCE77CB505460C466846FFF7FDFE002877
:1012000019D0FFF7B7FF002808D0FFF73BFF68466B
:10121000FFF70EFF2046FFF75DFF0AE06846FFF785
:1012200007FFFFF72FFF2046FFF754FF2846FFF781
:1012300067FF01207CBD0020FCE770B50446002557
:1012400032E0D84909780902D74A1332891888B29E
:1012500003F065FC2070D34909780902D24A1432A0
:10126000891888B203F05BFC60700120FFF75AFE1A
:101270000821742006F0B5FBA0700921742006F047
:10128000B0FBE0700020FFF74DFE2078A178884287
:1012900005D16078E178884201D1012070BD01203C
:1012A00006F056FA681CC5B2032DCADB0020F5E72C
:1012B000F7B504461646A000271800250BE0715D1F
:1012C000B84A12781202B84B1633D21890B203F013
:1012D0002EFC681C85B2BD42F1DBB24909780902D7
:1012E000B14A1632891888B2214603F020FCAD4974
:1012F00009780902AC4A1632891888B2019903F0BC
:1013000016FCFEBD70B5054600240CE0295DA54A1B
:1013100012781202B323DB00D218121990B203F034
:1013200006FC601CC4B2142CF0DB70BD10B5044682
:101330009C49097809029C4A891888B222461021E2
:1013400003F03FFC10BD10B5044696490978090228
:10135000954A891888B22246802103F032FC10BDDC
:1013600010B59049097809020B22D201891888B278
:1013700003F0D5FB10BDF0B58BB005460E46174601
:1013800000202870307009A8FFF7EAFD002802D17C
:1013900001200BB0F0BD08A800794021084040288A
:1013A00001D00220F5E707A908A8FFF7F4FD684679
:1013B000007F102108400009009008A800782870DC
:1013C0006846007F307008A800788021084204D168
:1013D0006846007F0821084201D01120D9E708A8FB
:1013E000007920210840202801D01420D1E708A846
:1013F00000784106490E08916846007F4107490F71
:10140000079108A80078002801D11020C1E708A89A
:101410000078182801DB1220BBE76846007F072808
:1014200001DB1320B5E708A80078810040180A9076
:101430000120FFF777FD0A98C2B23B464321742092
:1014400006F0FCF90020FFF76DFD00240AE0A10082
:101450006118C819FFF7B4FD002801D1032098E7EF
:10146000601C84B208A800788442F0DB0098002851
:1014700001D0102000E000206A46127F014611438F
:101480003A4608A80078FFF713FF142102A803F0DA
:1014900093FC0120FFF746FD02AB142220217420AB
:1014A00006F0CCF90020FFF73DFD02A8FFF72AFF68
:1014B0000120FFF748FF642006F05EF9FFF750FFB8
:1014C00001901C21019808401C2801D0042060E7ED
:1014D00000205EE7014600220878002802D1C87982
:1014E000002801D000207047012206E0885CFF2818
:1014F00001D00020F7E7501CC2B2062AF6DD012019
:10150000F1E7FFB583B00446665C481C205C00022E
:10151000301887B2002F17D1002A10D1C81C205CC8
:10152000FC2806D1002501E0681CC5B20D2DFBDBAF
:101530008CE0C81C205CFD28FAD1002586E0012A39
:10154000F6D1002007B0F0BD002A01D1362900D025
:1015500000BF0097881C265C081D205C001100025B
:1015600037180297C81C265C081D205C0007000D78
:101570003718481D265CC81D205C00110002371872
:101580000197881D265CC81D205C0007000D3718D8
:1015900008460830265CC01C205C80110002371809
:1015A000084603E0B4000020810500000930265CF5
:1015B000801C205C8006800F0002371808460A3025
:1015C000205C00110E460B36A65D3607B60F3602BC
:1015D0000F363040074608460A30205C0E460B3670
:1015E000A65DB607B60D0F363040074608460C30EC
:1015F000265C801C205C00110002371808460D3064
:10160000265C401C205C0007000D371808460F3090
:10161000235C401C235C401C235C0820034202D056
:101620001020034206D00820034202D110200342BA
:1016300000D100BF002A09D1362907D1069E0098A3
:10164000B080019E02987043069EB060012079E749
:10165000F0B507460D4600240CE020461221484311
:101660003630C6B22B46002231463846FFF749FFD6
:10167000601CC4B2042CF0DBF0BD70B503460C4610
:10168000002120E000254E1CF1B25E5C7006400E89
:10169000562800DA17E05D2801DACB4D0BE062280E
:1016A00001DACA4D07E0672802DA87252D0402E037
:1016B0006C2800DAC54D1669AE4201D22E4600E014
:1016C0001669166100BFA142DCDB70BD10B5024691
:1016D0000B46002000210FE0545C002C05DD545C1B
:1016E000042C02DA0124204304E0545C042C01D1D0
:1016F000102420434C1CE1B29942EDDB10BDFEB535
:1017000005460E461746072E01DBE8793873082E8A
:1017100034DB287AC021084201D10A2407E0287A64
:10172000C0210840C02801D10E2400E00C24A642AC
:1017300024DB285D4011029002982018B0421DDC85
:10174000611C68180299FFF7C1FF0190002000900A
:1017500010210198084203D087200004009005E082
:101760000198C007C00F01D09848009039690098CF
:10177000814201D2009800E038693861FEBDF0B5C1
:1017800085B007460D460020039000903C46207827
:10179000022802D0012005B0F0BD6078032801D0F6
:1017A0000120F8E7E0783021084068700026A07832
:1017B00000905AE0301DC117490E0918C911C9011E
:1017C000411ACC192078401102902078C006C00E32
:1017D0000190019831180098814201DD0120DAE77B
:1017E0000298030004F072FC083B0B05260C0D3B2D
:1017F0000E3B2A4620460199FFF73FFF2FE000BF2E
:1018000000BF2CE0607805280CD004DC002807D04D
:1018100001280AD105E0102805D0112805D103E0E0
:1018200000BF00BF00BF00BF02E00120287500BF5D
:1018300000BF14E06078032809D1A0780C2806D1F5
:10184000E078002803D101202870039001E00120F6
:1018500028752A4620460199FFF751FF00BF00BFB7
:1018600001983018C6B2701CC6B200988642A1DB3F
:10187000039890E702460023002104E0505CC01862
:10188000C3B2481CC1B28029F8DB002B01D1012072
:1018900070470020FCE7FEB506460C4600250027F1
:1018A00001200190002020706070A070401EA08078
:1018B000A0600020207320612075FF210131304697
:1018C00003F07AFAFFF711FB002802D00020019004
:1018D00066E00120FFF726FB334608220021A02006
:1018E00005F0ACFF3046FFF7F5FD002801D101906F
:1018F00056E0334680220021A02005F09FFF3046AD
:10190000FFF7B8FF002801D1019049E00120A07045
:101910007E21885DC117890F091889108900411A35
:10192000CFB221463046FFF793FE002F16D002209B
:10193000A0703346803380221146A02005F07EFF40
:1019400030468030FFF796FF002801D1019027E054
:10195000214630468030FFF712FF0190022F1EDB38
:1019600002251AE0E80F4019C005010E602000951D
:1019700006F0BEF82846E90F091849104900691A0F
:1019800004D18022A02005F08BFF04E080221146C4
:10199000A02005F085FF681CC5B2BD42E2DD00BF96
:1019A000019800280BD10120207000206070A070E9
:1019B000401EA080A06000202073206120750020C0
:1019C000FFF7B0FA0198FEBD00302A0000907E00BB
:1019D00010B50446012060400246F849F84803F07B
:1019E00085F910BD10B50021F64803F0A0F80121DB
:1019F000F448401E03F09BF80121F248801E03F0DA
:101A000096F80121EF48C01E03F091F80021212033
:101A1000400103F08CF80121EA48801C03F087F8AC
:101A20000121E848C01C03F082F80121E548001DAF
:101A300003F07DF803210902E248143803F08FF81F
:101A40000A21E048153803F072F8012211460420FB
:101A500003F0B7F801228021092003F0B2F810BD8D
:101A600010B50321772003F0A3F88121602003F053
:101A70005EF83B21612003F05AF805220F21D2487D
:101A800003F07AF8012203218120800003F074F82A
:101A900000220721CD4803F06FF8FFF7A3FFCC49E0
:101AA000CC4803F0D0F8CC49CA48001D03F0CBF86D
:101AB000CA494120C00103F0C6F811221206FF21D5
:101AC0000906C448E03003F0ECF8BD492639C148A6
:101AD000B03003F0B8F8C249BE48D83003F0B3F8CC
:101AE0000122D102B64803F001F901220F2148205A
:101AF00003F067F814221C21B148D03003F0D1F86C
:101B0000B849AF481C3803F09EF840226021AC4829
:101B1000083803F0C6F80120FFF75AFF08223C21DD
:101B2000AC48143003F0BDF8A7492A39A448DC308A
:101B300003F0CAF84021AC4803F085F830211820A2
:101B400003F02DF810BD10B59E480B3002F0E7FFF2
:101B50000A2801D1012010BD0020FCE710B5044681
:101B6000002C01D0102000E02020020603210907EC
:101B70009848001F03F095F810BD10B5152002F02D
:101B8000CEFFC007C00F10BD10B58F48C01D02F0BA
:101B9000C6FF10BD10B50446224601218A48401DEB
:101BA00003F00FF810BD10B5044680210C2002F0A0
:101BB000F6FF2246FF2101310D20000203F037F825
:101BC00080210C2002F0F4FF10BD10B50C2002F0B3
:101BD000A6FF8007800F10BD10B5044622460321E2
:101BE0000C2002F0C9FF10BD10B5FF20013002F03B
:101BF00096FF8007800F10BD10B5044622460121D4
:101C0000092002F0DEFF10BD10B50446002C01D003
:101C1000012000E0002002460321FF20013002F0F5
:101C2000D0FF10BD10B5FF20033002F078FF10BDCB
:101C300010B504462146FF20033002F078FF10BDA6
:101C400010B50121FF20023002F0A9FF10BD10B530
:101C5000FF20023002F063FF10210840001110BD88
:101C600010B5FF20043002F05AFF8006800E10BD30
:101C700010B5FF20013002F052FFFC210840801017
:101C800010BD10B50446A006020EFC21081D02F08E
:101C900073FF10BD10B5FF20023002F040FF20217D
:101CA0000840401110BDF8B506460F460025002437
:101CB0003046FFF7A9FF002E02D0012E2ED117E0EB
:101CC0003846FFF7B5FFFFF7BBFF07E0384605F0E2
:101CD00053FDFFF7BCFF0546601CC4B22846012136
:101CE00048403F2C00D000E000210842EED116E031
:101CF00002240FE02046FFF7C4FF384605F03CFD04
:101D0000FFF7C8FF012148400546002D00D003E041
:101D1000601CC4B23F2CEDDB00BF00E000BF00BF81
:101D20002846F8BD70B504460025002C04D0012CCF
:101D30000AD0022C18D10FE0FF20053002F0EFFE90
:101D400040210840851110E0FF20063002F0E7FE38
:101D500040210840851108E0FF20073002F0DFFE37
:101D600040210840851100E000BF00BF284670BD3B
:101D700070B505460C46002D04D0012D0ED0022D65
:101D80003CD117E0002C01D0012000E000200246E9
:101D90004021FF20053002F014FF30E0002C01D07C
:101DA000012000E0002002464021FF20063002F022
:101DB00008FF24E0002C19D0012018E0FE070000E5
:101DC000602200001F04000029100000050200002E
:101DD000F0FF1201942000000008FFFF0000113006
:101DE000920A000060C00003DC2F000000200246C1
:101DF0004021FF20073002F0E4FE00E000BF00BFFA
:101E000070BD10B5FF20083002F089FE801001D0AF
:101E1000012010BD0020FCE710B504462246042135
:101E2000FF20083002F0CDFE10BD10B5FF200930B4
:101E300002F075FE10BD10B504462146FF200930A2
:101E400002F075FE10BD70B504460025002C04D0CC
:101E5000012C09D0022C15D10DE0FF20053002F035
:101E60005EFE8506AD0E0EE0FF20063002F057FE46
:101E70008506AD0E07E0FF20073002F050FE850614
:101E8000AD0E00E000BF00BF284670BD70B506462D
:101E90000C461546002E04D0012E0BD0022E1BD16D
:101EA00011E0E0002843C2B23F21FF20053002F0DC
:101EB00063FE12E0E0002843C2B23F21FF2006305B
:101EC00002F05AFE09E0E0002843C2B23F21FF20A1
:101ED000073002F051FE00E000BF00BF70BD10B53A
:101EE0000446002C01D0022000E001200146FF2022
:101EF000083002F054FE10BD10B5FF20083002F08B
:101F00000EFE20210840401110BD70B5044600258A
:101F1000002C04D0012C09D0022C15D10DE0FF209B
:101F20000A3002F0FCFD8506AD0E0EE0FF200B30FE
:101F300002F0F5FD8506AD0E07E0FF200C3002F043
:101F4000EEFD8506AD0E00E000BF00BF284670BD67
:101F500070B504460025002C04D0012C08D0022CBA
:101F600012D10BE0FF200D3002F0EBFD05460CE036
:101F7000FF200F3002F0E5FD054606E0FF2011309E
:101F800002F0DFFD054600E000BF00BF284670BD3F
:101F90000146002901DA484200E0084600B27047D5
:101FA000F3B599B0064600270025FA4903C9019107
:101FB0000090002405E031462046FFF7D9FE601C62
:101FC000C4B2022CF7DD002E02D0012E7ED11BE020
:101FD0001A98FFF730FF0020FFF781FF07E01A98FB
:101FE00005F0CAFBFFF788FF0746681CC5B23846F4
:101FF00001214840E84909788D4201D0012100E0E3
:1020000000210842EBD177E000255AE000240AE0E5
:102010006800E24B1A5C6800C01841782046FFF760
:1020200035FF601CC4B2022CF2DD0120FFF757FF20
:102030001A9805F0A1FBFFF75FFF0746002F10D0AD
:1020400000240BE02046FFF783FF01B21E2060430F
:1020500002AA80186A008152601CC4B2022CF1DD11
:102060000BE0CF48690002AA505201466A0009A855
:10207000023081526A0011A8815200241DE01E2105
:10208000614302AA89186A00885EFFF781FF610038
:102090006A46515A8905890D88420CDA1E2161432E
:1020A00002AA89186A00885EFFF772FF29030843B5
:1020B00061006A465052601CC4B2022CDFDD681C0D
:1020C000C5B2B54800788542A0DB00E013E00024EB
:1020D0000EE060006946085A05136800AF4B1A5CB1
:1020E0006800C01841782046FFF7D0FE601CC4B2DB
:1020F000022CEEDD00E000BF00BF38461BB0F0BD93
:1021000070B504460025002C04D0012C0AD0022C06
:1021100018D10FE0FF20193002F001FD082108401E
:10212000C51010E0FF201A3002F0F9FC0821084029
:10213000C51008E0FF201B3002F0F1FC0821084028
:10214000C51000E000BF00BF284670BD70B5054651
:102150000C46002D04D0012D0ED0022D24D117E005
:10216000002C01D0012000E0002002460821FF20C1
:10217000193002F026FD18E0002C01D0012000E00B
:10218000002002460821FF201A3002F01AFD0CE060
:10219000002C01D0012000E0002002460821FF2091
:1021A0001B3002F00EFD00E000BF00BF70BD10B597
:1021B000FF201E3002F0B3FC0007000F10BD10B569
:1021C000044622460F21FF201E3002F0D5FC10BD30
:1021D00010B5FF201F3002F0A2FC10BD10B5044660
:1021E0002146FF201F3002F0A2FC10BD10B5FF20D9
:1021F0001E3002F094FCC0210840801110BD10B5C3
:102200000446A007020EC021FF201E3002F0B4FCDD
:1022100010BD10B5FF201E3002F081FC10210840D7
:10222000001110BD10B5044622011021FF201E3000
:1022300002F0A2FC10BD70B504460025002C04D0AD
:10224000012C09D0022C15D10DE0FF20193002F02D
:1022500066FC45076D0F0EE0FF201A3002F05FFCB0
:1022600045076D0F07E0FF201B3002F058FC4507C3
:102270006D0F00E000BF00BF284670BD70B5054679
:102280000C46002D04D0012D09D0022D15D10DE0F2
:1022900022460721FF20193002F06EFC0EE0224694
:1022A0000721FF201A3002F067FC07E022460721D1
:1022B000FF201B3002F060FC00E000BF00BF70BDDB
:1022C00010B50446002C01D0022000E00120014698
:1022D000FF201C3002F063FC10BD70B504460025E1
:1022E000002C04D0012C09D0022C17D10EE0FF20C5
:1022F0001D3002F014FCC507ED0F10E0FF201D306B
:1023000002F00DFC02210840451008E0FF201D30BE
:1023100002F005FC04210840851000E000BF00BF6A
:10232000284670BD70B504460025002C04D0012C51
:102330000AD0022C18D10FE0FF201D3002F0EFFB75
:1023400010210840050910E0FF201D3002F0E7FBD6
:1023500020210840450908E0FF201D3002F0DFFB86
:1023600040210840850900E000BF00BF284670BD3D
:1023700070B504460025002C04D0012C12D0022C8C
:102380001FD117E0FF202A3002F0C9FB45076D0F6F
:1023900018E00000D49A0000B5000020B49A0000B4
:1023A000FF030000FF202A3002F0B9FB7021084033
:1023B000051107E0FF202B3002F0B1FB45076D0F40
:1023C00000E000BF00BF284670BD10B5FF202030E0
:1023D00002F0A5FB4007400F10BD10B50446224691
:1023E0000721FF20203002F0C7FB10BD70B5044666
:1023F0000025002C04D0012C08D0022C12D10BE0B7
:10240000FF20233002F08BFB05460CE0FF20263036
:1024100002F085FB054606E0FF20293002F07FFB35
:10242000054600E000BF00BF284670BD70B50446F9
:102430000025002C04D0012C08D0022C12D10BE076
:10244000FF20213002F07DFB05460CE0FF20243008
:1024500002F077FB054606E0FF20273002F071FB13
:10246000054600E000BF00BF284670BDF0B58FB044
:1024700007460026002500200190029000900024CD
:1024800005E039462046FFF761FE601CC4B2022C0D
:10249000F7DD002F02D0012F78D11EE00020FFF7DA
:1024A0000FFF10E00A2005F067F90020FFF715FF85
:1024B00006460120FFF711FF06400220FFF70DFF3F
:1024C0000640681CC5B2304601214840082D00D0A6
:1024D00000E000210842E5D164E0002552E000243C
:1024E00005E029462046FFF7C9FE601CC4B2022C55
:1024F000F7DD0120FFF7E4FE0A2005F03DF900209A
:10250000FFF7EBFE06460120FFF7E7FE064002203C
:10251000FFF7E3FE0640002E0ED0002409E020461F
:10252000FFF784FF210103AA89186A008852601C02
:10253000C4B2022CF3DD0AE00020690003AA505265
:1025400000216A0007A881526A000BA8815200246A
:1025500014E0200103A940186900405A610001AA53
:10256000515A884208DD200103A940186900405AE9
:102570006100505268460555601CC4B2022CE8DD6B
:10258000681CC5B2082DAADB002407E009E06846F4
:10259000015D2046FFF772FE601CC4B2022CF6DD1E
:1025A00000E000BF00BF30460FB0F0BD10B50446DC
:1025B00022460221092002F004FB10BD10B50120C3
:1025C000FFF7F4FF10BD10B5044622460421092090
:1025D00002F0F7FA10BD10B5044622463F21F84834
:1025E00002F0CAFA10BD10B5044622468021F44814
:1025F00002F0E7FA10BD70B505460E460124012031
:10260000FFF7C8FA8021EE4802F0C9FA0121EC4830
:10261000083002F0C4FA204670BD10B5044601200F
:10262000A040C2B20721E648401D02F0A5FA10BD45
:1026300070B504460D4629070A0EE149491C601889
:10264000F02102F099FA70BD70B504460D46DC49E0
:10265000491C60182A460F2102F08EFA70BD10B591
:10266000D748401D02F05BFA10210840001110BD50
:10267000F1B5002400263DE000243046FFF7CDFFF1
:10268000102700250FE0002F00D10EE0781EC0B209
:10269000074601463046FFF7CBFF009805F058F893
:1026A000FFF7DDFF0446002CEDD000BF10E0102D39
:1026B00002D1681EC5B20DE029466A1CD5B230466B
:1026C000FFF7C2FF009805F043F8FFF7C8FF044684
:1026D000002CECD000BF002C0AD100252946304642
:1026E000FFF7B2FF009805F033F8FFF7B8FF044694
:1026F000701CC6B2022EBFDD0721B148401D02F09A
:1027000057FA2046F8BD10B5044622460121AD48CF
:1027100002F0ECFA22461F2109020520C00202F055
:10272000E5FA10BD10B504462246012189030520B3
:10273000C00202F0DBFA10BD10B50122D103052062
:10274000C00202F0D3FA00220121C9030520C00211
:1027500002F0CCFA10BD70B505460C46002D04D031
:10276000012D09D0022D16D10EE0224607219448F2
:10277000801D02F001FA0FE02007020E7021904840
:10278000801D02F0F9F907E0224607218C48C01DA0
:1027900002F0F2F900E000BF00BF70BD70B5054661
:1027A0000C46002D04D0012D20D0022D5AD13BE043
:1027B000A000854A801840780001A200824B9A5CF4
:1027C0001043C1B27E480E3002F0B1F9A0007E4A3B
:1027D0008018C0780001A2007B4BD2189278104379
:1027E000C1B277480F3002F0A2F93CE0A000764A6F
:1027F000801840780001A200734B9A5C1043C1B26C
:102800006F48103002F093F9A0006F4A8018C0782A
:102810000001A2006C4BD21892781043C1B26848F4
:10282000113002F084F91EE0A000674A8018407859
:102830000001A200644B9A5C1043C1B260481230A0
:1028400002F075F9A000604A8018C0780001A2006B
:102850005D4BD21892781043C1B25948133002F040
:1028600066F900E000BF00BF70BD70B504460026E9
:1028700054481C3002F0FCF9000C208051482030F4
:1028800002F0F6F960804F48203002F0F1F9000CB8
:10289000A080002513E07006060E6800205AC013C1
:1028A00006D06800205A4004400C6900605204E0E1
:1028B00046486900605201200643681CC5B2022DDB
:1028C000E9DD072E01D1002070BD0120FCE77CB5B9
:1028D00005466846FFF7C9FF0646FFF72DFF002EA5
:1028E00001D100207CBD002408E060006946085A40
:1028F000A84201DB0120F5E7601CC4B2022CF4DD24
:102900000020EFE710B5324802F0B2F9302108425A
:1029100005D02F48083002F096F9002010BD2D4850
:1029200002F0A6F9C003C00FF8E710B5002101209E
:10293000400202F0FCF807210120400202F0F7F803
:1029400010BD10B50121244802F0F1F80021224801
:1029500002F0EDF810BDF0B593B0064601201290DC
:10296000FF2E00D090E0022526E0002405E0294655
:102970002046FFF7F0FE601CC4B2022CF7DDFFF723
:10298000E0FF642004F0F8FEFFF7D6FE032004F019
:10299000DFFE04A8FFF769FF002409E0600004A936
:1029A000085A210106AA89186A008852601CC4B21C
:1029B000022CF3DD681CC5B2082DD6DB002460E0D4
:1029C0002510000008280000449A0000FF7F000046
:1029D000E02F00009C20000015020000F94F0020AD
:1029E00069460871022524E0200106A94018690003
:1029F000405AB8420BDA200106A940186900475A2C
:102A0000012168460171007901A90D540FE02001F0
:102A100006A940186900405AB84208D168460079B2
:102A2000401CC1B268460171007901A90D54681CAF
:102A3000C5B2082DD8DBFF200130874203DD042515
:102A40000020129017E069460879C10F0918491053
:102A50004900411A08D069460979481CC10F091874
:102A6000491001AA555C06E069460879C10F0918AA
:102A7000491001AA555C29462046FFF76CFE601CF0
:102A8000C4B2022CAADD00BFFE2E0BDA31460020B4
:102A9000FFF761FE31460120FFF75DFE314602205F
:102AA000FFF759FEFFF74DFF642004F065FEFFF7C6
:102AB00043FE129813B0F0BD70B504460D4616469D
:102AC00021460020FFF76AFE21460120FFF766FE3F
:102AD00021460220FFF762FEFFF727FF022004F0E5
:102AE00037FEFFF72EFF642004F046FEFFF724FEBA
:102AF000304604F02DFE2846FFF7B7FE70BDF7B54F
:102B0000B8B007460E4602203790002036901C20B1
:102B100035901C21384602F0FBF80F461C21304648
:102B200002F0F6F80E46002F39D11B2E37D10A27B6
:102B3000002415E00A2209A92046FFF7BDFF6846D8
:102B4000808CA149884207DB6846C08C884203DB41
:102B50006846008D884201DA274603E0601CC4B253
:102B6000BC42E7DB00BF11261B2415E00A2209A99D
:102B70002046FFF7A1FF6846808C9349884207DB17
:102B80006846C08C884203DB6846008D884201DAC3
:102B9000264603E0601EC4B2B442E7DC00BF3596AF
:102BA0003C4631E0322209A92046FFF785FF002587
:102BB0000AE0680009A9095A382068430BAA80185E
:102BC00062008152681CC5B2022DF2DD36980028E1
:102BD00018D16846808C202814DA6846C08C2028DA
:102BE00010DA6846008D20280CDA01203690204645
:102BF0000930C0B235903598B04201DD304600E072
:102C000035983590601CC4B235988442CADD0025E1
:102C100057E06C4800900020694608713C462AE065
:102C2000382068430BA940186100415A009881423E
:102C30000DDA382068430BA940186100405A009013
:102C4000012168460171007901A90C5411E0382076
:102C500068430BA940186100415A0098814208D18D
:102C600068460079401CC1B268460171007901A92B
:102C70000C54601CC4B235988442D1DD0521090290
:102C80000098884201DD0020379069460879C10F1D
:102C9000091849104900411A08D069460979481CA9
:102CA000C10F0918491001AA545C06E06946087969
:102CB000C10F0918491001AA545C3A984455681C80
:102CC000C5B2022DA5DD37983BB0F0BDF7B5034680
:102CD0000D461E785A789C7831463046914200DD88
:102CE0001146A14200DD2146904200DA1046A04282
:102CF00000DA2046042901DD0F1F00E00027F9B2A9
:102D0000172801D2071D00E01B27F8B22970029F87
:102D10003870FEBDF0B585B005460126FF2D00D008
:102D200080E0002101911B21009100243BE0600024
:102D3000201802A94218684601780079FFF7DFFEE3
:102D40000643FFF7DFFD00280CD100260D21FFF719
:102D500025FD0D210120FFF721FD0D210220FFF7A8
:102D60001DFD5FE0002C08D16100611802AA8818DF
:102D70006A4601A9FFF7AAFF13E0012C11D16846AA
:102D8000017AC07A81420CD16846417A02A8007962
:102D9000814206D16846817A02A84079814200D1F9
:102DA00003E0601CC4B2032CC1DB00BF002436E08A
:102DB00002A8015DC01C005D814207D102A8075D29
:102DC00027E00000FFFF0000FF7F000002A8015D78
:102DD000801D005D814202D102A8075D19E002A8B2
:102DE0000330015DC01C005D814203D102A80330A5
:102DF000075D0EE002A8015DC01C005D091803A874
:102E00000230005D0818C7B20321384601F096FF72
:102E1000C7B239462046FFF7C1FC601CC4B2032C80
:102E2000C6DB00BFFF2D10D01C21284601F070FF2B
:102E30000D4629460020FFF7B1FC29460120FFF787
:102E4000ADFC29460220FFF7A9FCFFF76EFD02202A
:102E500004F07EFCFFF775FD642004F08DFCFFF7A5
:102E60006BFCFF2D04D0FFF74DFD002800D100269C
:102E7000304605B0F0BD10B504462246C3210320FC
:102E800001F09FFE22460821092001F09AFE10BDA4
:102E900010B5044622460321F84801F092FE22466E
:102EA0000721C720800001F08CFE22461F21F34835
:102EB000801C01F086FE22467F21F048C01C01F0F4
:102EC00080FE10BD10B50446002C01D0012000E0AA
:102ED000002002460721E9480C3801F072FE10BDBF
:102EE00010B501213120000101F059FE10BD10B5CF
:102EF000E248401F01F013FE4007400F072801D1B0
:102F0000012010BD0020FCE710B5DC48401F01F097
:102F100006FE38210840C010072801D1012010BD4D
:102F20000020FCE770B504460D46002D0AD00121B3
:102F300069400A46A100611803231B02C818012139
:102F400001F03FFEA1006118C122920088182A46B4
:102F5000042101F036FEA1006118C84A1A3A881807
:102F60002A46012101F02DFE0A2004F005FCA100F3
:102F70006118C24A183A88182A46802101F021FEB9
:102F800070BD10B50446A007020EC021BB48401F0B
:102F900001F0F2FD10BD10B5B848001F01F0D1FDE1
:102FA0008004800C10BD70B504460D46322D05DD41
:102FB000642D01DD022002E0012000E00020064631
:102FC000002E04D0012E27D0022E70D149E0A1009E
:102FD0006118C122920088180122032101F0F1FD3D
:102FE000A10061180322120288180122F02101F0C9
:102FF000E8FDA1006118A14A183A88180122702141
:1030000001F0DFFDA10061189C4A183A88180122DE
:103010000C2101F0D6FD4BE0A1006118C122920005
:1030200088180122032101F0CCFDA10061180322C0
:10303000120288180122F02101F0C3FDA1006118DD
:103040008E4A183A88180122702101F0BAFDA100B9
:1030500061188A4A183A881801220C2101F0B1FD42
:1030600026E0A1006118C1229200881800220321E5
:1030700001F0A7FDA10061180322120288180122A5
:10308000F02101F09EFDA10061187C4A183A8818D1
:103090000122702101F095FDA1006118774A183ACC
:1030A000881801220C2101F08CFD01E0FFE700BF30
:1030B00000BF70BD70B504460D46A10061186F4A8F
:1030C000193A88182A463F2101F056FD02216B4823
:1030D0000A3801F064FD022168480A3801F068FDF1
:1030E0001E2004F049FB6548801E01F02AFD800483
:1030F000800C70BDF1B582B00298002802D0012882
:103100006AD102E0FFF7ECFE67E0002561E02846A7
:10311000FFF737FF01212846FFF704FFFFF73BFFCA
:10312000064657497143080A7D21C90001F0F0FDA8
:1031300080B2009028460099FFF735FFA900691872
:103140004E4A183A88180022032101F015FD002488
:10315000002001900AE020461030C4B2402C00D17B
:1031600007E021462846FFF7A5FF01900198B042ED
:10317000F1DB00BF20461038C4B2032711E0012064
:10318000B8402043C4B221462846FFF793FF019080
:103190000198B04203DD0120B840201AC4B2781E65
:1031A00047B2002FEBDA21462846FFF783FF00984D
:1031B000642808DDA9006918304A183A88180222E4
:1031C000032101F0D9FC00212846FFF7ABFE681C63
:1031D000C5B2022D9BDD00E000BF00BF012004F05E
:1031E000B7FAFFF791FEFEBD10B501240120FEF7EE
:1031F00003FD0120FFF74CFE80210120FEF753FD67
:1032000004400120FFF75EFE012004F0A1FA012036
:10321000FFF731FE204610BD70B5054600240020A2
:10322000FFF729FE0120FFF726FE012004F0A4FA93
:103230000120FFF75FFF002801D001200443012097
:1032400004F086FA0F210120FEF7AAFE002801D023
:1032500002200443012004F07BFA0020FFF706F966
:10326000002801D004200443204670BD10B5044658
:1032700022461021092001F0A4FC10BD1B03000010
:10328000C05D000010B5044622460321FA4801F053
:1032900098FC22460721F848401C01F092FC224687
:1032A0001F21F548801C01F08CFC22467F21F2484A
:1032B000C01C01F086FC22460721EF48001D01F0EA
:1032C00080FC01206040024601210F20000201F035
:1032D00078FC0120604002460121E748163801F0E1
:1032E00070FC0120604002460121E348113801F0E2
:1032F00068FC10BD10B50446002C01D0012000E090
:10330000002002460721DC480C3801F05AFC10BDB1
:1033100010B50121F120000101F041FC10BD10B5F4
:10332000D548401F01F0FBFB4007400F01D00120B2
:1033300010BD0020FCE710B5CF48401F01F0EFFBA7
:1033400038210840C01001D0012010BD0020FCE74A
:1033500010B50446002C01D0012000E000200246F8
:10336000C021C548401F01F02CFC10BD10B5C2485B
:10337000001F01F0E6FB8004800C10BD70B5044610
:103380000D46322D05DD642D01DD022002E0012015
:1033900000E000200646002E04D0012E30D0022E80
:1033A0007ED15BE0A1006118B34A173A8818012268
:1033B000032101F006FCA1006118AF4A183A8818F1
:1033C0000022032101F0FDFBA10061180F2212026F
:1033D00088180122F02101F0F4FBA1006118A64A2F
:1033E000183A88180122702101F0EBFBA100611846
:1033F000A14A183A881801220C2101F0E2FB5EE094
:10340000A10061189C4A173A88180122032101F093
:10341000D8FBA1006118984A183A881800220321A5
:1034200001F0CFFBA10061180F22120288180122BF
:10343000F02101F0C6FBA10061188F4A183A8818E4
:103440000122702101F0BDFBA10061188A4A183ADF
:10345000881801220C2101F0B4FB30E0A1006118B2
:10346000854A173A88180022032101F0AAFBA1001F
:103470006118814A183A88180122032101F0A1FB42
:10348000A10061180F22120288180122F02101F018
:1034900098FBA1006118784A183A8818012200E0C8
:1034A0000CE0702101F08DFBA1006118724A183AFE
:1034B000881801220C2101F084FB00E000BF00BF4E
:1034C00070BD70B505460C46002D04D0012D19D0F5
:1034D000022D45D12DE0002C01D0012000E000207C
:1034E00002463F216448193801F06BFB002C01D0E3
:1034F000012000E0002002463F215F48193801F01A
:1035000060FB2EE0002C01D0012000E000200246EC
:103510003F215948143801F054FB002C01D0012000
:1035200000E0002002463F215348143801F049FBD7
:1035300017E0002C01D0012000E0002002463F21CE
:103540004D480F3801F03DFB002C01D0012000E078
:10355000002002463F2148480F3801F032FB00E0CE
:1035600000BF00BF022144480A3801F018FB0221C5
:1035700041480A3801F01CFB0F2004F0FDF83E48DA
:10358000801E01F0DEFA8004800C70BDF1B584B0BD
:10359000002003900290019010240498FFF7AAFEE7
:1035A0000498002802D001285BD118E0FFF7B0FE94
:1035B00009E0012004F0E0F8FFF7B1FE0390029863
:1035C000401CC0B2029001210398484002993F2953
:1035D00001D0012100E000210842EAD142E00025AB
:1035E0003CE02846FFF7B4FEFFF7C0FE0646182170
:1035F00071430846C82101F08BFB80B20090284639
:103600000099FFF7BBFE0AE0402C00D10AE02146FA
:103610002846FFF756FF019020461030C4B20198AB
:10362000B042F1DB00BF20461038C4B2032711E0DE
:103630000120B8402043C4B221462846FFF741FF8D
:1036400001900198B04203DA0120B840201AC4B2B8
:10365000781E47B2002FEBDA681CC5B2022DC0DD20
:1036600000E000BF00BF142004F086F8FFF763FEFF
:103670000390039805B0F0BD1B0F000010B50124A6
:103680000120FFF7F3FD0120FFF7FCFD012004F00E
:1036900073F80020FFF77AFF0440204610BD10B5F4
:1036A000044622468321032001F08BFA2246202182
:1036B000092001F086FA10BD10B50446002C06D092
:1036C0000120604002460121080301F07AFA2246F7
:1036D0000421FE4801F075FA22460121FB48C01E74
:1036E00001F06FFA0A2004F047F822468021F748DB
:1036F000401E01F066FA10BD10B50446002C01D042
:10370000012000E0002002460721F0480B3001F0C4
:1037100058FA10BD10B50121EC480C3001F007FA41
:1037200010BD10B5E948123001F0F9F9C007C00F1B
:1037300010BD10B5E548123001F0F1F90221084042
:10374000401010BD10B5E1481A3001F0FAF98004BC
:10375000800C10BD70B50446322C05DD642C01DDF3
:10376000022002E0012000E000200546002D04D0E8
:10377000012D1AD0022D47D12EE003221146D34845
:1037800001F0FAF96022F0210120000301F0F4F9C0
:1037900060227021CD48401E01F0EEF904220C2178
:1037A000CA48401E01F0E8F92FE001220321C74872
:1037B00001F0E2F92022F021D00101F0DDF96022D0
:1037C0007021C248401E01F0D7F904220C21BF48E5
:1037D000401E01F0D1F918E000220321BB4801F09E
:1037E000CBF96022F0210120000301F0C5F960222D
:1037F0007021B648401E01F0BFF904220C21B348E5
:10380000401E01F0B9F900E000BF00BF70BD10B567
:10381000AE48133001F095F98004800C10BD10B54E
:10382000044622463F21A948801E01F0A5F9022145
:10383000A6480D3001F0B3F90221A4480D3001F083
:10384000B7F91E2003F098FFA048153001F079F970
:103850008004800C10BDF3B585B00E4600200490A6
:10386000039000246421304601F068FA86B205987E
:10387000002802D001287BD157E0322E01DD012043
:1038800000E00020024604219048401C01F099F914
:1038900004218E480B3001F08BF9FFF73BFF01202C
:1038A00003F056FF8948173001F039F9C02108406C
:1038B0008011029014218548401E01F038F9834898
:1038C000193001F02CF90621084040100190032125
:1038D0007E48019A01F050F97C48183001F01FF938
:1038E00007073F0F0298002801D1012100E00021C5
:1038F00038468840C7B2042F01D1082000E038467E
:1039000007463807020EF0210120000301F034F9C8
:1039100002218120800001F00AF904216B480B305C
:1039200001F03DF9FFF7F6FE56E00120FFF7C4FE77
:10393000022166480D3001F032F9022163480D3052
:1039400001F036F9012003F003FFFFF760FF049058
:103950003046FFF7FFFE002203215C48401E01F0C5
:103960000BF900BF20461030C4B2402C01D108E052
:1039700031E02046FFF753FF0390049903988842F3
:10398000F0DB00BF20461038C4B2032511E001204F
:10399000A8402043C4B22046FFF741FF039004999A
:1039A0000398884203DD0120A840201AC4B2681E93
:1039B00045B2002DEBDA2046FFF731FF0390642E6D
:1039C00005DD022203214148401E01F0D5F8002008
:1039D000FFF772FE00E000BF00BF012003F0B8FE59
:1039E000012007B0F0BD10B504466421204601F067
:1039F000A5F984B200213548203001F098F807215C
:103A00000120400201F0D4F84B2C24DC202230218C
:103A10008120400101F0B0F80322072181204001FC
:103A200001F0AAF802220F2128481D3001F0A4F865
:103A30001022302125481E3001F09EF80422072173
:103A400022481E3001F098F804220F211F481F3031
:103A500001F092F84BE0962C24DC102230218120DA
:103A6000400101F089F8032207218120400101F083
:103A700083F804220F2115481D3001F07DF8002243
:103A8000302112481E3001F077F8042207210F4838
:103A90001E3001F071F80C220F210C481F3001F08C
:103AA0006BF824E0002230218120400101F064F80D
:103AB000032207218120400101F05EF809220F2135
:103AC00002481D3001F058F8002201E00410000007
:103AD0003021F94801F050F800220721F64801F0A2
:103AE0004BF80C220F21F448401C01F045F87021DE
:103AF000F148801C01F01BF807210120400201F071
:103B00004EF810BD10B501240120FEF75CFD8021A8
:103B10000020FEF770FD04400120FEF7A9FD0440DF
:103B20002021C80101F003F80020FFF7E5FD402146
:103B3000032001F034F80120FEF7E5FD0120FEF737
:103B4000F1FD204610BD10B507210120000301F052
:103B500026F80721D848801C01F021F802214802EC
:103B600001F026F80121880201F019F810BD70B5A6
:103B700004460D460026FE2D00D145E00721012018
:103B8000000301F015F882228321032000F0F4FFE6
:103B90002021092001F003F8012003F0EDFDC748C2
:103BA00084420CDA30221146C3480A3000F0E4FFA8
:103BB00004220C21C0480B3000F0DEFF0BE0202275
:103BC0003021BD480A3000F0D7FF00220C21BA484E
:103BD0000B3000F0D1FFC0221146B7480B3000F087
:103BE000CBFF21460020FFF736FE2046FFF7FBFE05
:103BF0000121032000F0D3FF012003F0A9FD3021B3
:103C0000AF4801F020F800BF2846FEF7A4FE0028C8
:103C100001D002200643FEF775FE002801D00120E6
:103C20000643304670BD70B504460D46002601219E
:103C3000A148183000F0BCFF07210120000300F06C
:103C4000B7FF82228321032000F096FF2021092064
:103C500000F0A5FF012003F08FFD802196481B385E
:103C600000F09DFF632194481A3800F060FF9348EC
:103C7000844216DA202230218F48173000F07CFF72
:103C800000220F218C48173000F076FF55218A481A
:103C90000F3000F04CFF55218748103000F047FFEF
:103CA00015E0002230218448173000F065FF002223
:103CB0000F218148173000F05FFF11217E480F303F
:103CC00000F035FF11217C48103000F030FFC02299
:103CD000114679480B3000F04FFF21460020FFF7D6
:103CE000BAFD10227021774800F046FF8021754808
:103CF000143000F054FF2046FFF775FE0121032029
:103D000000F04DFF012003F023FD30216C4800F04E
:103D10009AFF2846FEF7FEFF0646304670BD10B5F6
:103D20000446224604210A2000F04BFF22460121CE
:103D3000480300F0DBFF10BD10B50120400300F088
:103D400097FFC007C00F10BD10B5044622460121E1
:103D50008320800100F0CAFF10BD10B50446214643
:103D60005748083000F06FFF10BD10B50446FDF74E
:103D7000EAFE002809D02046FDF7F0FE002C1AD1FB
:103D8000FF200130FFF7E9FF15E0002C09D04E4974
:103D90004120C00100F057FF4C494D4800F053FF4F
:103DA00009E0494908314120C00100F04CFF0021E1
:103DB000474800F048FF10BD704710B50446217811
:103DC0004348283800F03FFF60780006A2781204CC
:103DD0001043E278120210432279104301463C4816
:103DE000243800F030FF10BD70B50546002624E0F1
:103DF000F000841B285D0004621CAA5C12021043C0
:103E0000A21CAA5C1043014631481C3800F01BFF7D
:103E1000E01C285C0006221DAA5C12041043621DEF
:103E2000AA5C12021043A21DAA5C10430146284856
:103E3000183800F008FF701CC6B2282ED8DB70BD01
:103E400070B505460C462846FFF7B7FF2046FFF73A
:103E5000CBFF70BD10B51E48083000F009FF80058B
:103E6000C00F10BD10B51A48143800F001FF80B221
:103E700010BD10B50446224601210903144830380C
:103E800000F034FF10BD10B5044622460121C903DD
:103E90000F48303800F02AFF10BD10B50446002C42
:103EA0001AD001220B490A48303800F0FAFE0020EF
:103EB000FFF7E9FF14E0000022100000204E000090
:103EC000E82F00000502000000001130FF0116027B
:103ED000F42000000100FFFF0121FB4800F0FDFE7F
:103EE00010BD70B504460D4628062104084302465D
:103EF000F649F54800F0D5FE70BD10B504462246DF
:103F000001218903F04800F0F1FE10BD10B5EE4824
:103F1000403000F0ADFEC007C00F10BD10B5EC483A
:103F200000F0A6FEC000C00F10BDFEB504460D4651
:103F30001746FFF7F3FF0121484000902D072D0F92
:103F400029462046FFF7CDFF6006400E01900198FC
:103F5000810040180190002606E0B95DDA483F3044
:103F600000F0E5FD701C86B201988642F5DB214623
:103F7000D5483F3000F0DBFD0098002801D010202C
:103F800000E0002001462943CF483F3000F0CFFD3C
:103F9000FEBD70B504460D4616460120FFF77DFFB5
:103FA000012003F0E9FB0020FFF777FF32462946A6
:103FB0002046FFF7BAFF0120FFF765FF642003F0FA
:103FC000DBFBFFF7A3FF70BD10B5FDF7BCFD0028BC
:103FD0000BD04320C00100F04BFEBE490840884290
:103FE00001D1012010BD0020FCE74320C00100F0FA
:103FF0003FFE4007400F072801D10120F2E70020D3
:10400000F0E770B5B048083800F032FEC00906216C
:10401000084005464320C00100F02AFEC0430007C7
:10402000C00F28430446204670BD10B5A64888300E
:1040300000F01EFE000C10BD10B5A348AC3000F01F
:1040400017FE80B210BD10B59F488C3000F010FEF6
:1040500080B210BD10B59C48A43000F009FE80B2BB
:1040600010BD10B59848843000F002FE040C002CFE
:1040700004D02146984800F04BFE10BD0020FCE71C
:1040800010B59148283800F0F3FD0446A003C00F96
:1040900009D0A4B24B214901614308468F4900F081
:1040A00037FE80B210BD0020FCE710B5864888308E
:1040B00000F0DEFD80B210BD10B5402000F041FDE3
:1040C00010BD10B5362000F03CFD10BD10B53E20EF
:1040D00000F037FD10BD70B50446814800F0C8FD02
:1040E0008049084005462846204205D02040014628
:1040F0007B48083000F0A7FD2846204070BD10B571
:104100000446774800F0B4FD76490840204010BDD1
:1041100070B504460025FFF757FF002871D0FFF760
:1041200070FF2070FFF781FF6080FFF785FFA080A0
:10413000FFF789FFE080FFF78DFF2081FFF7A0FFE9
:1041400060816088322810DBA08832280DDBE0888F
:1041500032280ADB2089322807DB6088E188884220
:1041600003DBA0882189884201DA002070BD207815
:10417000C007C00F18D1A088C10F09184910490005
:10418000411A0DD0A0885849884204D1A088400423
:10419000000CA08008E0A0884000401EA08003E042
:1041A000A0884000401CA080FFF75BFF64214843CB
:1041B0000646A18800F0ACFDA0812078C007C00FA2
:1041C00007D1A0894004000CA08120894004000C84
:1041D0002081A089FF21F531884201DA0020C5E75E
:1041E000FFF763FFE081FFF767FF2082FFF769FFBA
:1041F0006082FFF76BFFA082208AA18A401820828C
:1042000001252846B2E770B504460D462A462146E8
:1042100033482C3000F06AFD70BD10B52C48E438EE
:1042200000F026FDC006C00E10BD10B504462246A3
:1042300001218920800100F059FD012060400246E3
:1042400001212A4800F0BDFC10BD10B504462246ED
:104250000121C9070920800200F048FD10BD10B5FA
:104260001B48443000F004FD4000400E10BD10B566
:104270001748403000F0FCFC0001000F10BD10B5E5
:104280001348443000F0F4FC8407A40F204610BD0E
:1042900010B50F48443000F0EBFC8004840F20463A
:1042A00010BD10B50A48443000F0E2FC4006800F13
:1042B00010BD10B54720C00100F0DAFC0006040F65
:1042C000042C15D1002420E0C42000000000FFFFD2
:1042D00060230000071100000060E316FF0F0000DC
:1042E000C82F00006FFE00007102000009040000EA
:1042F000052C01D1012408E0062C01D1022404E0A0
:10430000072C01D1032400E00024204610BD10B585
:104310004720C00100F0ACFC02210840400810BD5D
:10432000F8B50446002500260027012C03D100BF64
:1043300000BFC7030BE0022C03D1A5030026A7038F
:1043400005E0032C03D10125ED03002600273004EE
:1043500028430146FE4800F076FC3946FC48001D23
:1043600000F071FCF8BD10B5F9480C3000F080FC8D
:10437000040F042C01DB042000E02046201AC4B204
:10438000204610BD10B5F34800F072FC0004840F05
:10439000012C04D0022C04D0032C0ED103E0002405
:1043A0000BE0012409E0EB4800F062FC4002400F02
:1043B00001D1052400E0062400BF00BF204610BD47
:1043C00010B5E4483C3800F053FC0006440F012CC3
:1043D00002D0022C04D101E0012403E0022401E018
:1043E000002400BF00BF204610BD10B5D9483C389E
:1043F00000F03EFC0004040E012C06D0022C06D076
:10440000032C06D0042C08D105E0012407E0022487
:1044100005E0032403E0042401E0012400BF00BF01
:10442000204610BD10B5CB483C3800F021FC0002FE
:10443000040F230001F04AFE0906080A0C0E1014AE
:104440001412140000240DE001240BE0022409E002
:10445000032407E0042405E0052403E0082401E028
:10446000002400BF00BF204610BD10B5B948403839
:1044700000F0FEFB8406A40E082C12D006DC012CF2
:1044800009D0022C09D0042C11D108E0102C0AD03C
:10449000202C0CD109E0002010BD0120FCE70220F7
:1044A000FAE70320F8E70420F6E70520F4E7002008
:1044B000F2E710B5A748243000F0DAFB0006000F41
:1044C00010BD10B5A348243000F0D2FBC004440F47
:1044D000230001F0FBFD08130507090B0D0F111355
:1044E00003240DE000240BE0022409E0082407E087
:1044F0000A2405E00C2403E00E2401E0022400BF9E
:1045000000BF204610BD10B59248243000F0B0FB2B
:104510008005840F012C04D0022C04D0032C06D17A
:1045200003E0002405E0012403E0022401E000246C
:1045300000BF00BF204610BD10B58648243000F0F3
:1045400097FB4007400F10BD10B58248243000F0A3
:104550008FFB000E10BD70B50446532000F0DFFA4B
:1045600005462807000F6070542000F0D8FA054671
:104570002D072D0F032D01D00A2D02D10120A0708F
:1045800006E00B2D02D10220A07001E00020A070F7
:10459000522000F0C4FA05462807000FE07070BDF5
:1045A00070B504465F20C00100F062FB0546284656
:1045B000204204D020400146674800F044FB2846D2
:1045C000204070BD70B504465F20C00100F050FB74
:1045D00005462846204070BD70B504465E485830F8
:1045E00000F046FB05462846204205D02040014603
:1045F0005948603000F027FB2846204070BD70B558
:1046000004465548583000F033FB05462846204004
:1046100070BD70B504465048283000F029FB0546AF
:104620002846204205D0204001464B48303000F05B
:104630000AFB2846204070BD70B504464648283025
:1046400000F016FB05462846204070BDF8B504462C
:104650000F461646002C02D13F4D0C3D0DE0012CBB
:1046600002D13D4D3C3508E0022C02D13A4D543583
:1046700003E0032C01D1384D2435032C08DC002E37
:1046800001D0294600E0291F88B2394600F0DBFA44
:10469000F8BD38B50446FFF741FC012148402070C1
:1046A000FFF7DDFD6070FFF7EBFC6080FFF7DFFDDB
:1046B0002071FFF7E4FD6071FFF7EAFDA071FFF7DD
:1046C000F0FDE071FFF74FFE2072FFF75BFE6072B6
:1046D000FFF776FEA072FFF788FEE072FFF7A2FEFA
:1046E00020736846FFF737FF00206073FFF7E9FE8D
:1046F000A073FFF708FFE073FFF71EFF2074A07B95
:10470000002802D168464078A073E07B002802D1DF
:1047100068468078E073207C002802D16846C07823
:104720002074FFF711FF607438BD70B504460D4664
:104730000A4800F09DFA0607360F072C14D00F2EFA
:1047400012D1002D10D0CC22FC210448143807E0EF
:10475000B0200000A4230000882F00006822000081
:1047600000F09FFA002070BD0022FC21E14800F01B
:1047700098FA0120F7E770B504460D46002C01DDDC
:10478000012000E0002002461021DB4800F019FA69
:104790002007020E3021032000F0EEF92A460F21F7
:1047A000232000F0E9F970BD10B50446224601212E
:1047B000D24800F09BFA10BD10B50446032C0ED170
:1047C00000220C21084600F0D7F91021CC4800F057
:1047D000EFF901224021092000F0F3F932E0022C28
:1047E00012D104220C21084600F0C6F91021C44859
:1047F00000F0D5F900224021092000F0E2F9202143
:104800000C2000F0CCF91DE0012C12D104220C2167
:10481000084600F0B1F91021B94800F0C0F90022B3
:104820004021092000F0CDF920210C2000F0C0F932
:1048300008E008220C21084600F09EF920210C20F7
:1048400000F0B6F910BDFFB589B00D46022148024F
:1048500000F0AEF90121880200F0A1F91021A8486A
:10486000801E00F09CF90998FFF7A6FFA548854235
:1048700001DC00240BE0A148F838854201DC01246A
:1048800005E0A148854201DC022400E003240998E8
:10489000032804D122460321994800F06DF96421D0
:1048A0006943C9090B9A514308460C9900F030FA44
:1048B00080B208900898002802D1FF20E1300890CB
:1048C0000898C101914800F023FAC7B239468C48D4
:1048D000401C00F02CF90120A040C4B20998032824
:1048E00021D10C9800F05FFB07900B9800F05BFB68
:1048F0000590204600F057FB0390384600F053FB2C
:1049000001218907019000F0C8FA0290039900F094
:10491000C4FA0490059900F0C0FA0690079900F0D7
:10492000F9FA06460BE00998012804D1780000F056
:104930002FFB064603E0B80000F02AFB064630468F
:1049400000F038FBC0B2014607906D48401F00F0F0
:10495000EEF8304600F02EFBC0B2069000F023FBCC
:104960003146079000F095FA06469321C905304676
:1049700000F093FA0646304600F01CFBC0B2014638
:1049800007905F48001F00F0D2F8304600F012FB9D
:104990000004000E014607905948C01E00F0C7F8F9
:1049A000304600F007FB0002000E02460F21079080
:1049B0005348801E00F0E0F880215148401E00F06E
:1049C000EEF80121880200F0F3F8642002F0D4FE32
:1049D0000221480200F0E3F80DB0F0BDFEB5064636
:1049E0000F46002001900090494800F041F905036E
:1049F0002D0B4748001D00F03BF90403240B002D4C
:104A000003D0002C01D0042E16D10324E40264212B
:104A10007943C909614308460F21890100F078F9FB
:104A20000546002D00D13B4D2B462246394603203A
:104A3000FFF709FF0198FEBD64217943C90961436D
:104A40000846294600F064F980B2019064212046AE
:104A500000F05EF900194000A84201D20120009048
:104A6000032E06D12B46224639460320FFF7EBFEE4
:104A70003EE0022E06D12B46224639460220FFF7A1
:104A8000E2FE35E0012E1BD10098002806D02B460F
:104A9000224639460120FFF7D6FE29E0FDF753F8FC
:104AA000002806D02B46224639460220FFF7CBFECF
:104AB0001EE02B46224639460320FFF7C4FE17E0CE
:104AC0000098002803D00020FFF776FE10E0FDF7E5
:104AD0003AF8002806D02B46224639460220FFF736
:104AE000B2FE05E02B46224639460320FFF7ABFE17
:104AF0000198A0E7542200002D10000008280000B3
:104B00000604000088130000204E000070383900B1
:104B1000902300000A2201007C490870704710B5FC
:104B2000044621467948007802F030FF10BD70B588
:104B300004460D462A4621467448007802F094FF48
:104B400070BD70B504462046FFF7E9FF0546611CBD
:104B500088B2FFF7E4FF0002281880B270BD70B57C
:104B600005460C46E1B22846FFF7E1FF21126A1C18
:104B700090B2FFF7DCFF70BDF8B507460C4616464D
:104B80003846FFF7CCFF05462846A0430546304689
:104B90002040054329463846FFF7C9FFF8BD70B5E8
:104BA00005460C46224621462846FFF7E5FF70BD24
:104BB00070B504460D46002229462046FFF7DCFF6B
:104BC00070BD70B505460E461446002C04D0314623
:104BD0002846FFF7E4FF03E031462846FFF7E8FFE9
:104BE00070BD70B504462046FFF7ABFF0546A11C1B
:104BF00088B2FFF7A6FF0004281870BD70B50546FF
:104C00000C46A1B22846FFF7AAFF210CAA1C90B2BD
:104C1000FFF7A5FF70BD70B504460D461646334636
:104C20002A4621463948007802F0CFFD70BD70B5A4
:104C300004460D46164633462A4621463348007838
:104C400002F05CFE70BD38B505460C46684604703F
:104C50002004010E684641702002010E68468170F2
:104C6000210EC1706A4604212846FFF7E0FF38BDD7
:104C700038B505466A4604212846FFF7CCFF68464A
:104C8000C4782102807801430C46210268464078AE
:104C900001430C4620026946097808430446204631
:104CA00038BDF8B507460C4616463846FFF7E0FF14
:104CB00005462846A0430546304620400543294680
:104CC0003846FFF7C0FFF8BD70B505460C462246D2
:104CD00021462846FFF7E5FF70BD70B504460D4636
:104CE000002229462046FFF7DCFF70BD70B505465F
:104CF0000E461446002C04D031462846FFF7E4FF48
:104D000003E031462846FFF7E8FF70BDB6000020FB
:104D100030B50B46014600202022012409E00D4653
:104D2000D5409D4205D31D469540491B25469540DB
:104D300040191546521E002DF1DC30BD70B500241F
:104D40002546002801DA01244042002901DA012524
:104D50004942FFF7DDFFAC4200D04042002C00D0BA
:104D6000494270BD10B5202A04DB0846203AD040E5
:104D7000002110BD0B46D340D0402024A21A914000
:104D80000843194610BD03460B439B0703D009E0B7
:104D900008C9121F08C0042AFAD203E00B78037076
:104DA000401C491C521EF9D27047D2B201E0027079
:104DB000401C491EFBD270470022F6E710B513468F
:104DC0000A4604461946FFF7F0FF204610BD30B5ED
:104DD00004460020034600E05B1C934203D2E05CE3
:104DE000CD5C401BF8D030BDF8B502464A40D40F28
:104DF00042004B0052085B089A4202D20246084623
:104E000011464A0023D0C30D4A00DDB2120EAD1A7E
:104E1000202D35DA49020126490AF6058A19002CA7
:104E200000D0524220214F1B1146B9402A41101890
:104E3000C20D9A4221D0002C17D0012D08DCDA05D2
:104E4000801AD20F8019D207DBB200F0FFF8F8BD4C
:104E5000DA05801A012340001B06C01880185A4248
:104E60008018CA0F1043490007E04908C2071143E0
:104E7000DA05801A80194008801800F0DFF8F8BDC4
:104E800061000122511A001BF7E70122D2075140AD
:104E9000AAE70122D2075040A6E7024670B54A4071
:104EA000D30FDB0740002DD04A002AD0010E140E8C
:104EB000000212020919400A520A8418E501044648
:104EC0005443000A120A2E045043A4194219200C1C
:104ED000C543AA18120C0125AD03521C5219120425
:104EE0007F39240400D0521C104301D44000491ED5
:104EF000C2B20C06C0092018401C4008802A02D00B
:104F000003E0002070BD40084000002900DA0020C6
:104F1000184370BD70B502464A40D50F40004A00A4
:104F2000ED0740085208002814D0002A12D0C40D02
:104F3000D30D41020120C0055202490A520AE41A67
:104F4000091812187D34914201D3641C00E0490015
:104F5000002C01DA002070BD0023914201D3891A90
:104F60000343400849000028F7D100290AD09142A4
:104F700002D10121C90705E0914201D2012101E0DE
:104F80000121C943E005C018401900F057F870BD71
:104F9000C217C10F504010B54018CA079623002110
:104FA00000F054F810BD10B500229623114600F011
:104FB0004DF810BD410040020122400AD205090E01
:104FC00080187F2901DA00207047962903DC962299
:104FD000511AC8407047963988407047F0B51FB4E1
:104FE0000646002082B005464024019100901BE057
:104FF000019922460F463046FFF7B4FE049A059BFE
:10500000801A994110D310461946224600F06AF8DA
:10501000361A8F410197224601200021009F00F09F
:1050200061F838184D4100902046641E0028DFDCEE
:10503000019B00982946324607B0F0BD002904DAEA
:10504000401C490001D140084000704770B4002462
:10505000050C05D11024000402D1002921D011240F
:10506000050E01D100020834050F01D10001241DF5
:10507000850F01D18000A41C002801DB4000641CC6
:10508000002908D020252E1B0D46F540A14000D058
:1050900001212943084301061B1B000ADB1D02D521
:1050A000002070BC7047DB05181880180029F8DA5A
:1050B000401C4900F5D170BC40084000704700001A
:1050C000064C0125064E05E0E36807CC2B430C3C5B
:1050D00098471034B442F7D3FAF7F6FFDC9A000091
:1050E000FC9A000010B5202A04DB0146203A9140CA
:1050F000002010BD914020239C1A0346E340194331
:10510000904010BD10B50648016806A000F0CEFF23
:1051100003480068017809A000F0C8FF10BD000036
:10512000400000204572726F7220416464726573A2
:105130007320697320307825780A00004572726FF9
:1051400072204461746120697320307825780A00E8
:1051500000200E49C86172B600BF0D480D49C860F5
:105160000D48C86000BF0846006880088000C01C69
:1051700008600A4801214903086000BF0448054946
:10518000C8600020C86000BF62B67047C000002041
:105190005A5A000000040240A5A50000AAAA5555CD
:1051A00000210D4AD16172B600BF0C490C4AD16092
:1051B0000C49D16000BF1146096889088900891C23
:1051C00011600949016000BF0449D1600021D1602C
:1051D00000BF62B670470000C00000205A5A0000AD
:1051E00000040240A5A50000AAAA555500220C4BB8
:1051F000DA6172B600BF0B4A0B4BDA600B4ADA6019
:1052000000BF1A46126892089200521C1A60017080
:1052100000BF044ADA600022DA6000BF62B670475D
:10522000C00000205A5A000000040240A5A500005A
:1052300070B5044600F006FB05460BE0601C002834
:1052400008D0002C04D000F0FDFA401BA04201D988
:10525000032070BD03480068042108400428EDD0F5
:105260000020F6E700040240F8B504460E46012788
:10527000002500BF3948007E012801D10220F8BD79
:1052800001203649087600BF2068022826D134481C
:10529000FFF7CEFF002859D1401E00F0D1F8FFF7EC
:1052A00057FF2F48FFF7C4FF07460020C04300F018
:1052B0005FF872B600BF2B482B49C8602B48C86006
:1052C00000BF0846006880088000086000BF2548CD
:1052D000C8600020C86000BF62B637E02048FFF712
:1052E000A7FF002832D1401E3060656827E02846BD
:1052F00000F0A6F82846FFF753FF1948FFF798FF7C
:105300000746284600F034F872B600BF1548164923
:10531000C8601648C86000BF084600688008800062
:10532000086000BF0F48C8600020C86000BF62B6B8
:10533000002F01D0356008E0FF35FF350235A06849
:10534000400261684018A842D1D800BF00BF0020C9
:105350000249087600BF384691E70000C0000020EF
:1053600050C300005A5A000000040240A5A50000E6
:10537000014672B60120C003814214D200BF2D48FD
:105380002D4AD0602D48D06000BF104600698B0ABE
:1053900001229A409043284A106100BF2548D060FE
:1053A0000020D06042E001200004814218D200BFFA
:1053B0002048214AD0602148D06000BF1046426991
:1053C0000120C003081A830A0120984082431A482A
:1053D000426100BF1748184AD0600020D06025E025
:1053E000481C002820D100BF1248134AD06013483F
:1053F000D06000BF104600690020106100BF0D485A
:10540000D0600020D06000BF00BF0A48D0600B48C9
:10541000D06000BF104640690020506100BF0548C1
:10542000D0600020D06001E00120704762B600200B
:10543000FBE700005A5A000000040240A5A5000046
:10544000014672B60120C003814214D200BF2D482C
:105450002D4AD0602D48D06000BF104600698B0AED
:1054600001229A401043284A106100BF2548D060AD
:105470000020D06043E001200004814217D200BF29
:105480002048214AD0602148D06000BF10464069C2
:105490000122D2038A1A930A01229A4010431A4A1F
:1054A000506100BF1748D0600020D06027E0481C42
:1054B000002822D100BF1348134AD0601348D0609F
:1054C00000BF104600690020C043106100BF0D48B6
:1054D000D0600020D06000BF00BF0A48D0600B48F9
:1054E000D06000BF104640690020C043506100BF3B
:1054F0000448D0600020D06001E00120704762B60F
:105500000020FBE75A5A000000040240A5A5000055
:10551000F0B51FB486B0074615461E46012003901D
:1055200000240020029000BF3148007E012802D1F3
:1055300002200BB0F0BD01202D49087600BF2D4898
:10554000FFF776FE03900398002849D1002F02D17F
:10555000012002900BE0012F02D10220029006E010
:10556000022F02D10420029001E008200290079847
:10557000FFF766FF00242CE0E2002846314604963F
:105580000595FFF7EFFBC0B2019007982018009037
:105590000199FFF72BFE1748FFF74AFE039072B6FA
:1055A00000BF15481549C8601548C86000BF0846C7
:1055B000006880088000086000BF0F48C8600020B5
:1055C000C86000BF62B60398002800D004E0601CE9
:1055D000C4B202988442CFDB00BF0798FFF7C8FE31
:1055E00000BF00200249087600BF0398A1E7000031
:1055F000C000002050C300005A5A000000040240BE
:10560000A5A50000F0B502460B46002400250020A9
:10561000002100E101268E4034461E6826403546B2
:10562000A54279D15E68022E0DD1906C4E07F70E1F
:105630000F26BE400746B74338464F07FF0E1E6B86
:10564000BE40304390645E68042E08D1906C4E07D3
:10565000F70E0F26BE400746B743384690645E6893
:10566000032E0DD1906C4E07F70E0F26BE40074655
:10567000B74338464E07F70E0F26BE4030439064BE
:105680005E68002E08D110684F077F0F0126BE40CC
:105690000746B743384610605E68012E0CD110688B
:1056A0004F077F0FBE400746B74338464F077F0F6F
:1056B0000126BE40304310601E69012E12D1966B48
:1056C0009F693E439663506B4F077F0F0126BE4094
:1056D0000746B74338464F077F0F1E69BE40304329
:1056E000506323E05E69012E17D1506B4F077F0F87
:1056F000BE400746B74338465063906B10260746B6
:10570000B74338469063506B36010746B743384677
:105710005E693043506309E071E0506B4F077F0FC3
:105720000126BE400746B74338465063566BF6B273
:10573000002E05D0966B1F693F013E43966303E040
:10574000966B1027BE439663D06B4F000326BE4076
:105750000746B74338464F009E68BE403043D0638B
:10576000506803268E400746B7433846DE688E40B1
:1057700030435060106C01268E400746B7433846D0
:10578000DE698E4030431064506C01268E4007461F
:10579000B74338461E6A8E403043506401273F07A6
:1057A0005E683E40BE4235D1106901268E400746F4
:1057B000B74338465E6A8E4030431061106A012656
:1057C0008E400746B74338469E6A8E40304310628B
:1057D000DE6A002E02D0DE6A012E11D1906A012607
:1057E0008E400746B74338469062506A01268E4085
:1057F0000746B7433846DE6A8E403043506209E0C0
:10580000906A01268E400746B743384601268E40EF
:1058100030439062491C082900D2FBE6F0BD0246E5
:10582000D3680B40002B01D0012000E0002070471E
:1058300082684A4082607047002A01D0C16200E05D
:1058400001637047014800687047000004000020B1
:105850000348006803490978401801490860704707
:10586000040000200C00002010B5032000F004F814
:1058700000F040F8002010BD70B5044618480178CB
:105880007D20C000FFF744FA0646314615480068FF
:10589000FFF73EFA0546681E1349884201D90120E8
:1058A0000CE0681E114948610321081F00F032FA1C
:1058B00000200E498861072008610020002801D0DF
:1058C000012070BD042C07D221460020C04300F007
:1058D00021FA0748046001E00120F2E70020F0E728
:1058E0000C00002000000020FFFFFF0000E000E0AF
:1058F0000800002070477047F8B504462068056925
:10590000206806680027042028400746002F12D18F
:10591000E807C00F00280ED0F007C00F00280AD0FB
:10592000204600F097FA002804D02046FFF7E3FF56
:1059300000202063F8BD002F1BD004202840002841
:1059400003D0206B042108432063206B00280FD074
:10595000E807C00F002806D0F007C00F002802D0CB
:10596000204600F077FA2046FFF7C5FF00202063AD
:10597000E0E702202840002807D00220304000281D
:1059800003D0204600F008FBD4E700BFD2E710B5F3
:105990000446002C01D1012010BD2D20005D0028FF
:1059A00002D100212C20015524212D200155204613
:1059B00000F0CEFA0020206320212D2001552E205A
:1059C00001550020E8E710B503462E20C05C2028D2
:1059D00025D1002901D0002A01D1012010BD00BF2E
:1059E0002C20C05C012801D10220F7E701242C20E3
:1059F000C45400BF59621A855A85002018632224B6
:105A00002E20C45400BF00242C20C45400BF1868AA
:105A10000068012420431C6820600020DEE702208B
:105A2000DCE7000010B5044647480078030000F0AA
:105A30004DFB050419284B687E0044484449097809
:105A4000405C102802D000F099FB73E03F484049C9
:105A50000978405C3F49087001203D4908703A4987
:105A6000087067E039483A490978405C3949097853
:105A700040183849087002203549087032490870CA
:105A800058E0324832490978405C3349087008468A
:105A90000078002806D103202D49087004202A49E7
:105AA000087010E000202D4908702848284909781E
:105AB000405C284909784018264908700320244989
:105AC00008702149087035E0204821490978405C78
:105AD0002049097840181F4908701D480078401C6B
